:0400000054EF00F0C9
:1000080029002900290029002900290029002900A0
:100018002900290029002900290029002900290090
:100028002900290029002900290029002900290080
:1000380029002900290029002900290029008C030A
:100048002900290029002900290029002900290060
:100058002900290029002900290029002900290050
:100068002900290029002900290029002900290040
:100078002900290029002900290029002900290030
:100088002900290029002900290029002900290020
:100098002900290029002900290029002900FF003A
:1000A80008EF07F01250800B1B6E12501224216EBD
:1000B80011AE61EF00F063EF00F064EF00F0218013
:1000C8002150D8B46AEF00F06CEF00F07FEF00F039
:1000D8002128D8A472EF00F074EF00F07CEF00F054
:1000E800000E0F6E000E106E000E116E000E126ED6
:1000F800118E87EF00F0000E0F6E000E106E000ECE
:10010800116E000E126E1650800B1B1A1650162414
:10011800206E15AE92EF00F094EF00F095EF00F02E
:1001280020802050D8B49BEF00F09DEF00F0B0EF96
:1001380000F02028D8A4A3EF00F0A5EF00F0ADEF61
:1001480000F0000E136E000E146E000E156E000EF9
:10015800166E158EB8EF00F0000E136E000E146EBA
:10016800000E156E000E166E2050D8B4BEEF00F0CB
:10017800C0EF00F0C8EF00F02150D8A4C6EF00F09F
:10018800C8EF00F0D2EF00F0000E0F6E000E106EF8
:10019800000E116E000E126E7CEF02F015500F0269
:1001A8006F00CCFF26F06F00D0FF27F026501C6EA2
:1001B8001D6A1E6A1F6A2750226E236A246A256AEE
:1001C800145010026F00CCFF26F06F00D0FF27F00C
:1001D80026501C26000E1D221E221F2227502226D2
:1001E800000E232224222522135011026F00CCFF77
:1001F80026F06F00D0FF27F026501C26000E1D2287
:100208001E221F2227502226000E232224222522C6
:100218001EC01FF01DC01EF01CC01DF01C6A13502C
:1002280010026F00CCFF26F06F00D0FF27F0265099
:100238001C2627501D22000E1E22000E1F221450BD
:100248000F026F00CCFF26F06F00D0FF27F026507A
:100258001C2627501D22000E1E22000E1F221EC023
:100268001FF01DC01EF01CC01DF01C6A13500F02A9
:100278006F00CCFF26F06F00D0FF27F026501C2619
:1002880027501D22000E1E22000E1F22155010029C
:100298006F00CCFF26F06F00D0FF27F026502226F3
:1002A80027502322000E2422000E2522145011026A
:1002B8006F00CCFF26F06F00D0FF27F026502226D3
:1002C80027502322000E2422000E25221550110249
:1002D8006F00CCFF26F06F00D0FF27F02650176E76
:1002E8002750186E196A1A6A19C01AF018C019F03E
:1002F80017C018F0176A17502226185023221950D1
:1003080024221A5025221CC017F01DC018F01EC048
:1003180019F01FC01AF0190E97EF01F0D8901A3291
:10032800193218321732E82E92EF01F017502226B0
:1003380018502322195024221A5025221EC01FF0BB
:100348001DC01EF01CC01DF01C6A205021C017F0F3
:10035800186A1726000E1822820E1724266EFF0E22
:100368001820276ECDEF01F0D89022362336243698
:1003780025361FAEC2EF01F0C4EF01F0C5EF01F062
:100388002280D8901C361D361E361F362606D8A069
:10039800270624AED2EF01F0D4EF01F0B8EF01F058
:1003A800000E206E1FAEDBEF01F0DDEF01F001EF74
:1003B80002F0FF0E1C14176EFF0E1D14186EFF0EB0
:1003C8001E14196E7F0E1F141A6E1750181019106C
:1003D8001A10D8B4F2EF01F0F4EF01F0F8EF01F0E1
:1003E800010E206E01EF02F022A0FDEF01F0FFEFF9
:1003F80001F001EF02F0F4EF01F02050D8B407EF5C
:1004080002F009EF02F02DEF02F0010E2226000E95
:1004180023222422252225A014EF02F016EF02F051
:100428002DEF02F022C017F023C018F024C019F0F5
:1004380025C01AF01A341A3219321832173217C076
:1004480022F018C023F019C024F01AC025F0264A5B
:10045800272A27BE38EF02F0275008E12628D8A01F
:1004680038EF02F03AEF02F044EF02F0000E226E8D
:10047800000E236E800E246E7F0E256E72EF02F042
:1004880027BE51EF02F0275006E12604D8B04FEFFF
:1004980002F051EF02F05DEF02F0000E226E000E46
:1004A800236E000E246E000E256E000E1B6E72EF7A
:1004B80002F026C021F0FF0E2216FF0E23167F0E33
:1004C8002416000E251621A06CEF02F06EEF02F044
:1004D8006FEF02F0248ED8902130256E1B50251224
:1004E80022C00FF023C010F024C011F025C012F074
:1004F80012001250800B1F6E12501224266E11AE7D
:1005080088EF02F08AEF02F08BEF02F02680265087
:10051800D8B491EF02F093EF02F0A8EF02F026288A
:10052800D8A499EF02F09BEF02F0A3EF02F0000EBF
:100538000F6E000E106E000E116E000E126E118EF0
:10054800000E126EB0EF02F0000E0F6E000E106E6D
:10055800000E116E000E126E1650800B1F1A1650E8
:100568001624276E15AEBBEF02F0BDEF02F0BEEF0A
:1005780002F027802750D8B4C4EF02F0C6EF02F08B
:10058800DBEF02F02728D8A4CCEF02F0CEEF02F080
:10059800D6EF02F0000E136E000E146E000E156EEC
:1005A800000E166E158E000E166EE3EF02F0000EAA
:1005B800136E000E146E000E156E000E166E13509C
:1005C800141015101610D8A4ECEF02F0EEEF02F09C
:1005D80006EF03F0000E0F6E000E106E000E116E87
:1005E800000E126E800E11127F0E12121F50121280
:1005F8000FC00FF010C010F011C011F012C012F0AF
:1006080049EF04F02650D8A40CEF03F00EEF03F0E6
:1006180018EF03F0000E0F6E000E106E000E116E34
:10062800000E126E49EF04F0275026C017F0186A22
:10063800175E000E185A7F0E1724206E000E182021
:10064800216E0FC01BF010C01CF011C01DF012C0AD
:100658001EF0000E0F6E000E106E000E116E000ED2
:10066800126E000E226E000E236E000E246E000E17
:10067800256E000E276E79EF03F02750D8B447EFA8
:1006880003F049EF03F060EF03F0D8901B361C36F7
:100698001D361E36D8900F3610361136123625AE56
:1006A80058EF03F05AEF03F05BEF03F00F80D89098
:1006B800223623362436253613501B5C14501C581A
:1006C80015501D5816501E58D8A06DEF03F06FEF47
:1006D80003F078EF03F0258C13501B5E14501C5A5E
:1006E80015501D5A16501E5A272A190E27647FEFD7
:1006F80003F081EF03F041EF03F01B501C101D10B5
:100708001E10D8B48AEF03F08CEF03F0A4EF03F0C7
:100718002280A4EF03F0D8900F3610361136123627
:1007280025AE99EF03F09BEF03F09CEF03F00F80E9
:10073800D89022362336243625362006D8A021061E
:1007480011AEA9EF03F0ABEF03F08FEF03F0000E4B
:10075800276E25AEB2EF03F0B4EF03F0D8EF03F045
:10076800FF0E2214176EFF0E2314186EFF0E2414AA
:10077800196E7F0E25141A6E1750181019101A10BA
:10078800D8B4C9EF03F0CBEF03F0CFEF03F0010EBD
:10079800276ED8EF03F00FA0D4EF03F0D6EF03F0E5
:1007A800D8EF03F0CBEF03F02750D8B4DEEF03F017
:1007B800E0EF03F004EF04F0010E0F26000E102204
:1007C8001122122212A0EBEF03F0EDEF03F004EF79
:1007D80004F00FC017F010C018F011C019F012C0C3
:1007E8001AF01A341A3219321832173217C00FF0A9
:1007F80018C010F019C011F01AC012F0204A212AAE
:1008080021BE0FEF04F0215008E12028D8A00FEFF7
:1008180004F011EF04F01CEF04F0000E216E2068C4
:10082800000E0F6E000E106E000E116E000E126E8E
:1008380021BE29EF04F0215006E12004D8B027EFAB
:1008480004F029EF04F037EF04F0000E216E000EDB
:10085800206E000E0F6E000E106E000E116E000E50
:10086800126E000E1F6E20C026F026A03EEF04F088
:1008780040EF04F043EF04F0118E44EF04F0119EB2
:10088800D8902630126EFAEF02F01200096E095065
:10089800D8B451EF04F053EF04F075EF04F004BE40
:1008A8005AEF04F058EF04F075EF04F001C005F0BA
:1008B80002C006F003C007F004C008F0051E061EBB
:1008C800071E081E052A000E06220722082205C058
:1008D8000BF006C00CF007C00DF008C00EF07DEF5D
:1008E80004F001C00BF002C00CF003C00DF004C00E
:1008F8000EF00150021003100410D8A486EF04F083
:1009080088EF04F092EF04F0000E016E000E026E04
:10091800000E036E000E046E23EF05F0960E0A6EAD
:100928009CEF04F00A2AD8900E320D320C320B32AA
:10093800000E0B14056E000E0C14066E000E0D143E
:10094800076EFE0E0E14086E0550061007100810EC
:10095800D8A4B1EF04F0B3EF04F096EF04F0C1EFC0
:1009680004F00A2A010E0B26000E0C220D220E227C
:10097800D8900E320D320C320B32000E0B14056E6D
:10098800000E0C14066E000E0D14076EFF0E0E14EA
:10099800086E0550061007100810D8A4D6EF04F00A
:1009A800D8EF04F0B5EF04F0E0EF04F00A06D890B1
:1009B8000B360C360D360E360DBEE5EF04F0E7EFBC
:1009C80004F0EFEF04F0020E0A60EDEF04F0EFEF31
:1009D80004F0DAEF04F00AB0F4EF04F0F6EF04F0F4
:1009E800F7EF04F00D9ED8900A320AC005F0066AA7
:1009F800076A086A05C008F0076A066A056A0550AA
:100A08000B1206500C1207500D1208500E12095006
:100A1800D8B411EF05F013EF05F01BEF05F004BE95
:100A28001AEF05F018EF05F01BEF05F00E8E0BC05E
:100A380001F00CC002F00DC003F00EC004F012006B
:100A4800000E426E000E436E000E3A6E000E3B6EB4
:100A5800000E3C6E000E3D6E000E3E6E000E3F6EA8
:100A6800000E406E000E416E000E456E000E466E82
:100A7800000E476E000E486EC2823A014083010E96
:100A88003E01F16FF881000E446E6F00C0FB42F02A
:100A98006F00BCFB43F042C036F0376A386A396AE7
:100AA80038C039F037C038F036C037F0366A36C04B
:100AB8003AF037C03BF038C03CF039C03DF0435005
:100AC8003E6E3F6A406A416A3E503A24456E3F5046
:100AD8003B20466E40503C20476E41503D20486EBA
:100AE800442A4F0E44647BEF05F07DEF05F049EF93
:100AF80005F03E01F8B183EF05F085EF05F0E5EF6D
:100B080005F0F60E136E280E146E9C0E156E3F0E31
:100B1800166E45C001F046C002F047C003F048C059
:100B280004F0000E4AEC04F001C00FF002C010F00F
:100B380003C011F004C012F056EC00F00FC028F00A
:100B480010C029F011C02AF012C02BF0F6EC05F005
:100B580028C045F029C046F02AC047F02BC048F00D
:100B6800000E136E000E146E200E156E410E166EDA
:100B780045C001F046C002F047C003F048C004F089
:100B8800000E4AEC04F001C00FF002C010F003C0E0
:100B980011F004C012F07DEC02F00FC028F010C074
:100BA80029F011C02AF012C02BF0F6EC05F028C08D
:100BB80045F029C046F02AC047F02BC048F0EDEFB9
:100BC80005F0000E456E000E466E000E476E000ED4
:100BD800486E45C032F046C033F047C034F048C0D4
:100BE80035F012002A342B34316E3150D8A4FFEF7F
:100BF80005F001EF06F00BEF06F0000E286E000E70
:100C0800296E000E2A6E000E2B6E78EF06F028C0B3
:100C18002CF029C02DF02AC02EF02BC02FF0200E6A
:100C28001BEF06F0D8902F322E322D322C32E82EC0
:100C380016EF06F02C50306E2A8EFF0E2816FF0E87
:100C48002916FF0E2A16000E2B16960E315E31BE9F
:100C580032EF06F030EF06F048EF06F03150800A28
:100C6800970FD8B03AEF06F03CEF06F03EEF06F0EB
:100C780001EF06F0D8902B322A3229322832313E41
:100C88003EEF06F060EF06F01F0E31644EEF06F0FF
:100C980050EF06F058EF06F001EF06F0D89028362E
:100CA80029362A362B3631063150D8A45EEF06F0A5
:100CB80060EF06F052EF06F03050D8B466EF06F059
:100CC80068EF06F070EF06F02B1E2A1E291E286C0E
:100CD800000E29222A222B2228C028F029C029F018
:100CE8002AC02AF02BC02BF012003E01F89FF89D75
:100CF800F851F30B0409F86FF669F751E00B030993
:100D0800F76FF369F451E00B0709F46FF98FF99164
:100D1800F8993F0EFF13FA9FF80EFA178F0EFB177C
:100D2800F80EFB17000EEC6F000EEB6F000EE76F6E
:100D3800000EE56F000EE46F000EDF6F000EDE6F31
:100D4800000EE06F000EE16F000EFE6FD79F0F0ED2
:100D5800FD17F00EFD17000EF56FF88F1200D29EEA
:100D6800D29CD29A000ED76E000ED66E080ED56EA3
:100D7800D28ED28CD28AF5EC06F0030E4F6E000E9E
:100D8800506E000E516E000E526E4EB0CEEF06F051
:100D9800D0EF06F0C9EF06F024EC05F032C049F0B8
:100DA80033C04AF034C04BF035C04CF0C9EF06F000
:100DB80054EF00F0B89EB888F60EB66EC20EB76E45
:100DC800F00EB816B9501F0B4009B96EB988B95062
:100DD800F00B0709B96E3901A39F839F938FB88ED3
:100DE8001200C398C39A28EC07F02CEC07F0DEEC4D
:100DF80006F079EC06F023EC07F030EC07F02AEC6B
:100E080007F02EEC07F012004E6A4D6A4C6A4B6AE6
:100E18004A6A496A080ED56E000ED66E000ED76E65
:060E28000001B3EF06F02B
:100E30003901A3AF1EEF07F020EF07F022EF07F014
:100E40004E2AA39F1100C380C382C384C3861200AD
:100E5000CB981200CB881200CB9A1200CB8A1200DA
:020E600012007E
:020000040020DA
:10000000FF0FFF0FFF0FFF0FFF0FFF0FFF0FFF0F80
:020000040030CA
:0A00000088D53DF785CF7FF9FEFF9C
:00000001FF
